{
  "_format": "hh-sol-artifact-1",
  "contractName": "FundContract",
  "sourceName": "contracts/Fund.sol",
  "abi": [
    {
      "inputs": [],
      "stateMutability": "nonpayable",
      "type": "constructor"
    },
    {
      "inputs": [
        {
          "internalType": "string",
          "name": "_id",
          "type": "string"
        },
        {
          "internalType": "uint256",
          "name": "_value",
          "type": "uint256"
        },
        {
          "internalType": "string",
          "name": "_title",
          "type": "string"
        }
      ],
      "name": "addFund",
      "outputs": [],
      "stateMutability": "payable",
      "type": "function"
    },
    {
      "inputs": [],
      "name": "allFunds",
      "outputs": [
        {
          "components": [
            {
              "internalType": "string",
              "name": "id",
              "type": "string"
            },
            {
              "internalType": "uint256",
              "name": "value",
              "type": "uint256"
            },
            {
              "internalType": "string",
              "name": "title",
              "type": "string"
            },
            {
              "internalType": "address",
              "name": "donorOwner",
              "type": "address"
            }
          ],
          "internalType": "struct FundContract.Fund[]",
          "name": "",
          "type": "tuple[]"
        }
      ],
      "stateMutability": "view",
      "type": "function"
    },
    {
      "inputs": [
        {
          "internalType": "uint256",
          "name": "",
          "type": "uint256"
        }
      ],
      "name": "funds",
      "outputs": [
        {
          "internalType": "string",
          "name": "id",
          "type": "string"
        },
        {
          "internalType": "uint256",
          "name": "value",
          "type": "uint256"
        },
        {
          "internalType": "string",
          "name": "title",
          "type": "string"
        },
        {
          "internalType": "address",
          "name": "donorOwner",
          "type": "address"
        }
      ],
      "stateMutability": "view",
      "type": "function"
    }
  ],
  "bytecode": "0x608060405234801561001057600080fd5b50336000806101000a81548173ffffffffffffffffffffffffffffffffffffffff021916908373ffffffffffffffffffffffffffffffffffffffff160217905550610b38806100606000396000f3fe6080604052600436106100345760003560e01c80636f6f78eb146100395780637b8e889514610055578063d254baa614610095575b600080fd5b610053600480360381019061004e9190610647565b6100c0565b005b34801561006157600080fd5b5061007c600480360381019061007791906106c6565b6101d4565b60405161008c94939291906108b2565b60405180910390f35b3480156100a157600080fd5b506100aa610344565b6040516100b79190610890565b60405180910390f35b6001604051806080016040528085815260200184815260200183815260200160008054906101000a900473ffffffffffffffffffffffffffffffffffffffff1673ffffffffffffffffffffffffffffffffffffffff168152509080600181540180825580915050600190039060005260206000209060040201600090919091909150600082015181600001908051906020019061015e929190610527565b50602082015181600101556040820151816002019080519060200190610185929190610527565b5060608201518160030160006101000a81548173ffffffffffffffffffffffffffffffffffffffff021916908373ffffffffffffffffffffffffffffffffffffffff1602179055505050505050565b600181815481106101e457600080fd5b906000526020600020906004020160009150905080600001805461020790610a4a565b80601f016020809104026020016040519081016040528092919081815260200182805461023390610a4a565b80156102805780601f1061025557610100808354040283529160200191610280565b820191906000526020600020905b81548152906001019060200180831161026357829003601f168201915b50505050509080600101549080600201805461029b90610a4a565b80601f01602080910402602001604051908101604052809291908181526020018280546102c790610a4a565b80156103145780601f106102e957610100808354040283529160200191610314565b820191906000526020600020905b8154815290600101906020018083116102f757829003601f168201915b5050505050908060030160009054906101000a900473ffffffffffffffffffffffffffffffffffffffff16905084565b60606001805480602002602001604051908101604052809291908181526020016000905b8282101561051e578382906000526020600020906004020160405180608001604052908160008201805461039b90610a4a565b80601f01602080910402602001604051908101604052809291908181526020018280546103c790610a4a565b80156104145780601f106103e957610100808354040283529160200191610414565b820191906000526020600020905b8154815290600101906020018083116103f757829003601f168201915b505050505081526020016001820154815260200160028201805461043790610a4a565b80601f016020809104026020016040519081016040528092919081815260200182805461046390610a4a565b80156104b05780601f10610485576101008083540402835291602001916104b0565b820191906000526020600020905b81548152906001019060200180831161049357829003601f168201915b505050505081526020016003820160009054906101000a900473ffffffffffffffffffffffffffffffffffffffff1673ffffffffffffffffffffffffffffffffffffffff1673ffffffffffffffffffffffffffffffffffffffff168152505081526020019060010190610368565b50505050905090565b82805461053390610a4a565b90600052602060002090601f016020900481019282610555576000855561059c565b82601f1061056e57805160ff191683800117855561059c565b8280016001018555821561059c579182015b8281111561059b578251825591602001919060010190610580565b5b5090506105a991906105ad565b5090565b5b808211156105c65760008160009055506001016105ae565b5090565b60006105dd6105d884610936565b610905565b9050828152602081018484840111156105f557600080fd5b610600848285610a08565b509392505050565b600082601f83011261061957600080fd5b81356106298482602086016105ca565b91505092915050565b60008135905061064181610aeb565b92915050565b60008060006060848603121561065c57600080fd5b600084013567ffffffffffffffff81111561067657600080fd5b61068286828701610608565b935050602061069386828701610632565b925050604084013567ffffffffffffffff8111156106b057600080fd5b6106bc86828701610608565b9150509250925092565b6000602082840312156106d857600080fd5b60006106e684828501610632565b91505092915050565b60006106fb8383610808565b905092915050565b61070c816109cc565b82525050565b61071b816109cc565b82525050565b600061072c82610976565b6107368185610999565b93508360208202850161074885610966565b8060005b85811015610784578484038952815161076585826106ef565b94506107708361098c565b925060208a0199505060018101905061074c565b50829750879550505050505092915050565b60006107a182610981565b6107ab81856109aa565b93506107bb818560208601610a17565b6107c481610ada565b840191505092915050565b60006107da82610981565b6107e481856109bb565b93506107f4818560208601610a17565b6107fd81610ada565b840191505092915050565b600060808301600083015184820360008601526108258282610796565b915050602083015161083a6020860182610872565b50604083015184820360408601526108528282610796565b91505060608301516108676060860182610703565b508091505092915050565b61087b816109fe565b82525050565b61088a816109fe565b82525050565b600060208201905081810360008301526108aa8184610721565b905092915050565b600060808201905081810360008301526108cc81876107cf565b90506108db6020830186610881565b81810360408301526108ed81856107cf565b90506108fc6060830184610712565b95945050505050565b6000604051905081810181811067ffffffffffffffff8211171561092c5761092b610aab565b5b8060405250919050565b600067ffffffffffffffff82111561095157610950610aab565b5b601f19601f8301169050602081019050919050565b6000819050602082019050919050565b600081519050919050565b600081519050919050565b6000602082019050919050565b600082825260208201905092915050565b600082825260208201905092915050565b600082825260208201905092915050565b60006109d7826109de565b9050919050565b600073ffffffffffffffffffffffffffffffffffffffff82169050919050565b6000819050919050565b82818337600083830152505050565b60005b83811015610a35578082015181840152602081019050610a1a565b83811115610a44576000848401525b50505050565b60006002820490506001821680610a6257607f821691505b60208210811415610a7657610a75610a7c565b5b50919050565b7f4e487b7100000000000000000000000000000000000000000000000000000000600052602260045260246000fd5b7f4e487b7100000000000000000000000000000000000000000000000000000000600052604160045260246000fd5b6000601f19601f8301169050919050565b610af4816109fe565b8114610aff57600080fd5b5056fea2646970667358221220aa48e3571a09919c72959c847652933c61314a0b41f0a4655b7bfee448f44d8764736f6c63430008000033",
  "linkReferences": {},
  "deployedLinkReferences": {}
}